:020000040800F2
:100000000050002031080008510500085305000881
:1000100055050008570500085905000800000000B4
:100020000000000000000000000000002120000887
:100030005B05000800000000C1200008991D0008B1
:10004000790800087908000879080008790800088C
:100050007908000879080008790800085D0500089B
:10006000790800087908000879080008790800086C
:100070006905000879050008790800087908000872
:10008000790800088905000879080008790800083F
:10009000790800087908000879080008990500081F
:1000A000790800087908000879080008790800082C
:1000B00079080008B90500087908000879080008DF
:1000C000790800087908000879080008790800080C
:1000D0007908000879080008C9050008D905000852
:1000E0007908000879080008790800080000000075
:1000F0000000000000000000000000000000000000
:0C01000000000000000000005FF808F1A3
:1001100010B5054C237833B9044B13B10448AFF341
:1001200000800123237010BD700500200000000036
:10013000503E000808B5034B1BB103490348AFF319
:10014000008008BD0000000074050020503E00083B
:1001500000B583B0124B5A6942F001025A615B69E3
:1001600003F001030193019B002205210C2000F004
:10017000EFFB0C2000F0FCFB002205210D2000F01D
:10018000E7FB0D2000F0F4FB00220521112000F018
:10019000DFFB112000F0ECFB03B05DF804FB00BFB7
:1001A0000010024008B5012001F08BFEFBE70000C3
:1001B00008B5044A0021044801F028FE034B1860EA
:1001C00008BD00BF8C3E0008A50100088C0500207A
:1001D0002DE9F04389B00024049405940694079413
:1001E000444B9A6942F020029A619A6902F0200217
:1001F0000192019A9A6942F004029A619A6902F0A6
:1002000004020292029A9A6942F008029A619B697A
:1002100003F008030393039B374E01224FF48051F0
:10022000304600F007FE354D01224FF4807128461C
:1002300000F000FE22464FF45071304600F0FAFD07
:1002400060230493DFF8B880CDF814800227069766
:1002500004A9284600F0E0FC80230493059406944A
:1002600004A9284600F0D8FC4FF00109CDF8109001
:100270000594069404A9304600F0CEFC8223049332
:10028000CDF81480069704A9304600F0C5FC4FF461
:100290009A530493CDF814900694079704A9304616
:1002A00000F0BAFC4FF480730493CDF814900694D8
:1002B000079704A9284600F0AFFC4FF4007304939D
:1002C000CDF81480069404A9284600F0A5FC224627
:1002D0000521072000F03CFB072000F049FB2246E7
:1002E0000521172000F034FB172000F041FB09B076
:1002F000BDE8F08300100240000C014000080140FE
:100300000000111008B50268034B9A4200D008BDE6
:1003100000F0C6FAFBE700BF0004004072B6FEE73B
:1003200000B591B02822002106A803F078FB002335
:1003300001930293039304930593022306930123ED
:100340000A9310230B9306A800F0A0FD68B90F23B1
:1003500001930021029103910491059101A800F0FD
:10036000C7FF20B911B05DF804FBFFF7D7FFFFF717
:10037000D5FF08B500F082FAFFF7D2FFFFF728FF9C
:10038000FFF7E6FE00F00CF800F054F900F06CF90D
:1003900001F00EFDFFF70CFF01F01CFDFEE7000071
:1003A00008B50E480E4B03604FF482734360002380
:1003B0008360C360036143614FF400728261202255
:1003C000C2610362436283620A23C36201F08AF856
:1003D00000B908BDFFF7A2FFFBE700BF90050020B2
:1003E0000038004010B586B00023029303930493B5
:1003F00005930268174B9A4201D006B010BD03F571
:10040000EC33DA6942F48042DA61DA6902F480425C
:100410000092009A9A6942F008029A619B6903F07F
:1004200008030193019B4FF420430293022303939B
:1004300003230593084C02A9204600F0EDFB4FF47E
:100440008043029300230393049302A9204600F003
:10045000E3FBD2E700380040000C014000B583B058
:10046000114B9A6942F001029A619A6902F0010205
:100470000092009ADA6942F08052DA61DB6903F097
:1004800080530193019B00220F216FF0010000F0C7
:100490005FFA064A536823F0E06343F00073536049
:1004A00003B05DF804FB00BF0010024000000140F3
:1004B00030B589B00446214BDA6942F00202DA61B4
:1004C000DB6903F002030193019B02A903A800F07A
:1004D000EBFF069BCBB900F0C7FF0346184AA2FB0F
:1004E00003239B0C013B1748174A026040F2E73296
:1004F000C2604360002303618360836101F078F987
:10050000054630B1284609B030BD00F0ADFF4300CC
:10051000E4E70C4801F042F805460028F2D11D201E
:1005200000F026FA0F2C01D90125EBE70022214625
:100530001D2000F00DFA054B1C60E3E7001002409F
:1005400083DE1B43E8050020000400400800002073
:10055000FEE7FEE7FEE7FEE7FEE7704708B502208C
:1005600000F070FC08BD000008B5024800F0B2FAC7
:1005700008BD00BF7806002008B5024800F0AAFABE
:1005800008BD00BF3406002008B5024800F0A2FAFA
:1005900008BD00BFBC06002008B5202000F052FCBA
:1005A000402000F04FFC802000F04CFC4FF4007025
:1005B00000F048FC08BD000008B5024801F026F82C
:1005C00008BD00BFE805002008B5024801F0A2FA06
:1005D00008BD00BF4807002008B5024801F09AFA9C
:1005E00008BD00BF0007002010B503460C4A0D49A6
:1005F0000D48006840B10C4800680344521A934209
:1006000006D8094A136010BD0748084C0460F2E799
:1006100003F042FA0C2303604FF0FF30F3E700BF12
:10062000005000200004000030060020701E002052
:100630007047000008B50A480A4B03604FF4E133E5
:10064000436000238360C36003610C2242618361C5
:10065000C36101F0A3F900B908BDFFF75FFEFBE736
:10066000480700200044004008B50A480A4B0360D0
:100670004FF4E133436000238360C36003610C22C5
:1006800042618361C36101F089F900B908BDFFF7D8
:1006900045FEFBE7000700200048004070B588B029
:1006A0000446002304930593069307930368554A71
:1006B000934204D0544A934248D008B070BD534B83
:1006C000DA6942F40032DA61DA6902F40032009247
:1006D000009A9A6942F004029A619B6903F004034C
:1006E0000193019B0423049302230593032307939F
:1006F000474E04A9304600F08FFA082304930025E2
:100700000595069504A9304600F086FA4148424B0B
:1007100003601023436085608023C36005614561E9
:1007200085614FF44053C36100F030F958B9394B3B
:10073000A3635C6200220521262000F009F926202F
:1007400000F016F9B9E7FFF7E9FDF0E72F4BDA699A
:1007500042F48022DA61DA6902F480220292029A7B
:100760009A6942F008029A619B6903F008030393B7
:10077000039B4FF4806304930223059303230793A1
:10078000264E04A9304600F047FA4FF40063049364
:1007900000250595069504A9304600F03DFA20484D
:1007A000204B03601023436085608023C360056194
:1007B00045618561C56100F0E9F8E8B9184BA363AC
:1007C0005C621948194B03600023436083608022F8
:1007D000C260036143618361C36100F0D7F870B9FF
:1007E000114BE3635C6200220521272000F0B0F882
:1007F000272000F0BDF860E7FFF790FDDEE7FFF788
:100800008DFDEDE70044004000480040001002402C
:1008100000080140BC06002080000240000C01409E
:10082000780600201C000240340600203000024000
:10083000FFF7FEFE0B480C490C4A002302E0D45897
:10084000C4500433C4188C42F9D3094A094C00231C
:1008500001E013600432A242FBD303F023F9FFF757
:1008600088FD7047000000206C050020E83E00086D
:1008700070050020701E0020FEE7000008B5074A42
:10088000136843F010031360032000F04FF80F20AB
:10089000FFF70EFEFFF7E2FD002008BD002002403A
:1008A000034A1168034B1B780B441360704700BF69
:1008B0009007002004000020014B1868704700BF1B
:1008C00090070020002808DB0901C9B200F1604050
:1008D00000F5614080F80013704700F00F00090137
:1008E000C9B2014B1954704714ED00E000B500F097
:1008F0000700C0F1070CBCF1040F28BF4FF0040C37
:10090000031D062B0FD9C31E4FF0FF3E0EFA0CF04D
:1009100021EA000199400EFA03FE22EA0E0241EAA2
:1009200002005DF804FB0023EEE70000074AD368ED
:1009300023F4E0631B041B0C000200F4E06003439B
:1009400043F0BF6343F40033D360704700ED00E031
:1009500010B50446054BD868C0F30220FFF7C6FF68
:1009600001462046FFF7AEFF10BD00BF00ED00E0DE
:10097000002807DB00F01F02400901239340024AD0
:1009800042F82030704700BF00E100E050B310B4DF
:1009900002460168144B0B441448A0FB03031B09D7
:1009A0009B001364124BD363022382F82130086842
:1009B0006FF30D10536894682343D468234314697C
:1009C00023435469234394692343D4692343034352
:1009D0000B6000209063012382F8213082F8200010
:1009E00010BC704701207047F8FFFDBFCDCCCCCCC8
:1009F00000000240034690F82120D2B2022A06D01D
:100A000004228263002280F82020012070470168C0
:100A10000A6822F00E020A6001680A6822F00102E8
:100A20000A60026CC06B012101FA02F2426083F895
:100A30002110002083F820007047000008B590F8CE
:100A40002130DBB2022B03D004238363012008BDD5
:100A50000268136823F00E0313600268136823F022
:100A6000010313600368194A934214D0143293426D
:100A70001FD0143293421ED0143293421ED014322F
:100A800093421ED01432934202D04FF0807203E0A2
:100A90004FF4801200E001220D4B5A60012380F8D0
:100AA0002130002380F82030436B6BB19847002041
:100AB000CDE71022F0E74FF48072EDE74FF480525B
:100AC000EAE74FF48032E7E70020C0E70800024081
:100AD0000000024038B5C36B1A6804682568016CD1
:100AE00004238B40134235D015F0040F32D0236815
:100AF00013F0200F03D1236823F00403236003685D
:100B0000434A934214D01432934218D01432934281
:100B100017D01432934217D01432934217D01432A4
:100B2000934202D04FF0806203E04FF4800200E075
:100B30000422384B5A60C36A03B1984738BD40223B
:100B4000F7E74FF48062F4E74FF48042F1E74FF4A7
:100B50008022EEE702238B4013423CD015F0020FB7
:100B600039D0236813F0200F06D1236823F00A033D
:100B70002360012380F821300368254A934214D072
:100B8000143293421CD0143293421BD0143293423D
:100B90001BD0143293421BD01432934202D04FF038
:100BA000007203E04FF4001200E00222194B5A6079
:100BB000002380F82030836A002BBFD09847BDE720
:100BC0002022F3E74FF40072F0E74FF40052EDE714
:100BD0004FF40032EAE708238B401342AED015F001
:100BE000080FABD0236823F00E032360026CC16BA7
:100BF000012303FA02F24A60836380F82130002364
:100C000080F82030036B002B98D0984796E700BF00
:100C1000080002400000024070B582B00024A446E3
:100C2000A1E07E4DAB4214D00CD8A5F58015AB42A7
:100C30000FD005F57025AB420BD0A5F58015AB4262
:100C400010D106E0764DAB4203D005F58035AB42BE
:100C500008D18B68002B50D0012B49D04261082469
:100C600000E0CC68BEF1FF0F49D806464FEA8C027F
:100C700033680F25954023EA050304FA02F2134373
:100C800033604B6813F0805F6BD0664B9A6942F01B
:100C900001029A619B6903F001030193019B4FEAF2
:100CA0009C02951C604B53F825600CF00305AD00C9
:100CB0000F23AB4026EA03065C4B984226D003F58F
:100CC0008063984200F08C8003F58063984200F0C6
:100CD000898003F58063984216D0042317E0CC681E
:100CE0000434BFE7CC680834BCE7CC680C34B9E7FF
:100CF00002610824B6E70024B4E70424B2E7061D25
:100D0000ACF108029200B3E7032300E00023AB40FC
:100D100033430232444D45F822304B6813F4801FB0
:100D200062D0434A936843EA0E0393604B6813F41E
:100D3000001F5FD03E4AD36843EA0E03D3604B687E
:100D400013F4003F5CD03A4A536843EA0E03536001
:100D50004B6813F4803F59D0354A136843EA0E03B9
:100D600013600CF1010C0B6833FA0CF254D0012221
:100D700002FA0CF203EA020E32EA0303F1D14B68E5
:100D8000122B3FF64EAF122B3FF66CAF01A555F874
:100D900023F000BF530C0008630C0008E50C0008AA
:100DA000F70C0008650C0008650C0008650C0008CD
:100DB000650C0008650C0008650C0008650C00084F
:100DC000650C0008650C0008650C0008650C00083F
:100DD000650C0008650C0008DF0C0008EB0C00082F
:100DE000012394E7022392E7114A936823EA0E0352
:100DF00093609BE70E4AD36823EA0E03D3609EE715
:100E00000B4A536823EA0E035360A1E7084A1368AC
:100E100023EA0E031360A4E702B070BD00002210A5
:100E200000003110001002400000014000080140A5
:100E3000000401400AB10161704709040161704773
:100E40007047000008B5054B5B69034200D108BD3F
:100E5000024B5861FFF7F4FFF9E700BF00040140BF
:100E600082B0084B1B68084AA2FB03235B0A00FB05
:100E700003F3019300BF019B5A1E0192002BF9D18D
:100E800002B0704700000020D34D6210002800F02F
:100E9000F18170B582B00446036813F0010F2CD0C5
:100EA000994B5B6803F00C03042B1DD0964B5B68D9
:100EB00003F00C03082B12D06368B3F5803F41D0D8
:100EC000002B55D103F1804303F504331A6822F453
:100ED00080321A601A6822F480221A6037E08A4B46
:100EE0005B6813F4803FE7D0874B1B6813F4003F27
:100EF00003D06368002B00F0BF81236813F0020F5A
:100F000075D0814B5B6813F00C0F5FD07E4B5B6834
:100F100003F00C03082B54D02369002B00F08A80C7
:100F20007A4B01221A60FFF7C7FC0546764B1B6817
:100F300013F0020F75D1FFF7BFFC401B0228F5D953
:100F400003209EE1704A136843F4803313606368A2
:100F500043B3FFF7B1FC05466B4B1B6813F4003F2E
:100F6000CBD1FFF7A9FC401B6428F5D9032088E109
:100F7000B3F5A02F09D0644B1A6822F480321A60AE
:100F80001A6822F480221A60E1E703F18043A3F596
:100F90003C331A6842F480221A601A6842F48032A4
:100FA0001A60D4E7FFF788FC0546574B1B6813F41B
:100FB000003FA2D0FFF780FC401B6428F5D9032036
:100FC0005FE1514B5B6813F4803FA5D14E4B1B682A
:100FD00013F0020F03D02369012B40F04F814A4ADE
:100FE000136823F0F803616943EAC10313602368BF
:100FF00013F0080F33D0A369002B5CD0434B0122C0
:10100000C3F88024FFF758FC05463F4B5B6A13F09A
:10101000020F21D1FFF750FC401B0228F5D9032015
:101020002FE1394A136823F0F803616943EAC103E9
:101030001360DCE7354B00221A60FFF73DFC0546E4
:10104000314B1B6813F0020FD1D0FFF735FC401B6A
:101050000228F5D9032014E10120FFF701FF2368DE
:1010600013F0040F00F09680274BDB6913F0805FCC
:1010700034D1254BDA6942F08052DA61DB6903F042
:1010800080530193019B0125214B1B6813F4807F42
:1010900026D0E368012B3DD0002B53D103F18043D0
:1010A00003F504331A6A22F001021A621A6A22F066
:1010B00004021A6233E0154B0022C3F88024FFF7C4
:1010C000FBFB0546104B5B6A13F0020FC7D0FFF71E
:1010D000F3FB401B0228F5D90320D2E00025D3E71B
:1010E0000B4A136843F480731360FFF7E5FB064671
:1010F000074B1B6813F4807FCBD1FFF7DDFB801B10
:101100006428F5D90320BCE00010024000004242F0
:10111000007000405F4A136A43F001031362E36802
:1011200033B3FFF7C9FB06465A4B1B6A13F0020F95
:101130002FD1FFF7C1FB801B41F288339842F3D9CE
:1011400003209EE0052B09D0524B1A6A22F00102BF
:101150001A621A6A22F004021A62E0E74D4B1A6A18
:1011600042F004021A621A6A42F001021A62D6E7D9
:10117000FFF7A2FB0646474B1B6A13F0020F08D08D
:10118000FFF79AFB801B41F288339842F3D9032082
:1011900077E0E5B9E369002B72D03E4A526802F06D
:1011A0000C02082A56D0022B17D03B4B00221A669D
:1011B000FFF782FB0446374B1B6813F0007F47D0D4
:1011C000FFF77AFB001B0228F5D9032059E0314ACA
:1011D000D36923F08053D361DCE72F4B00221A66DA
:1011E000FFF76AFB05462B4B1B6813F0007F06D008
:1011F000FFF762FB401B0228F5D9032041E0236A78
:10120000B3F5803F1AD023494B6823F47413226A44
:10121000606A024313434B601F4B01221A66FFF7BB
:101220004BFB04461B4B1B6813F0007F0ED1FFF7EE
:1012300043FB001B0228F5D9032022E0154A53681E
:1012400023F40033A1680B435360DCE7002018E06F
:10125000002016E0012B16D00E4B5B6803F48031A2
:10126000226A914211D103F47013626A93420ED143
:10127000002006E001207047012002E0012000E08C
:10128000002002B070BD0120FBE70120F9E701203A
:10129000F7E700BF00100240000042420F4B5B68BE
:1012A00003F00C02082A01D00D487047C3F38342B3
:1012B0000C49885C13F4803F0BD0084B5B68C3F388
:1012C0004043094AD35C064A02FB00F0B0FBF3F04E
:1012D0007047064B03FB00F0704700BF0010024050
:1012E00000127A00CC3E0008C83E000800093D000C
:1012F000002800F0A08070B50D460446524B1B68D4
:1013000003F007038B420BD24F4A136823F0070305
:101310000B431360136803F007038B4240F08D808A
:10132000236813F0020F17D013F0040F04D0474ABC
:10133000536843F4E0635360236813F0080F04D04C
:10134000424A536843F460535360404A536823F061
:10135000F003A1680B435360236813F0010F31D0F1
:101360006368012B20D0022B25D0384A126812F076
:10137000020F64D035494A6822F0030213434B60E0
:10138000FFF79AFA0646314B5B6803F00C0362687C
:10139000B3EB820F16D0FFF78FFA801B41F2883330
:1013A0009842F0D9032045E0284A126812F4003F21
:1013B000E0D101203EE0254A126812F0007FD9D129
:1013C000012037E0204B1B6803F00703AB420AD92A
:1013D0001D4A136823F007032B431360136803F0BF
:1013E0000703AB422DD1236813F0040F06D0174A30
:1013F000536823F4E063E1680B435360236813F000
:10140000080F07D0114A536823F46053216943EA57
:10141000C1035360FFF742FF0C4B5B68C3F3031338
:101420000B4AD35CD8400B4B18600B4B1868FFF786
:101430003FF8002070BD012070470120FAE701202D
:10144000F8E70120F6E700BF00200240001002404C
:10145000B83E00080000002008000020014B18687A
:10146000704700BF0000002008B5FFF7F7FF044BEE
:101470005B68C3F30223034AD35CD84008BD00BFB6
:1014800000100240B03E000808B5FFF7E7FF044B2C
:101490005B68C3F3C223034AD35CD84008BD00BFD6
:1014A00000100240B03E00080F2303600B4B5A6847
:1014B00002F0030242605A6802F0F00282605A6849
:1014C00002F4E062C2605B68DB0803F4E06303617E
:1014D000034B1B6803F007030B60704700100240CA
:1014E00000200240002856D010B50446436A33B9A4
:1014F0004368B3F5827F05D00023C36102E0002377
:10150000036143610023A36294F85130002B3CD067
:10151000022384F851302268136823F040031360DB
:10152000636803F48273A26802F404421343E2681E
:1015300002F400621343226902F00202134362695B
:1015400002F001021343A26902F400721343E2693C
:1015500002F038021343226A02F080021343A26AA7
:1015600002F40052216813430B60638B226803F07E
:10157000040353602268D36923F40063D36100201D
:101580006065012384F8513010BD84F85030204646
:10159000FEF728FFBCE701207047704790F83D3008
:1015A000DBB2012B27D1022380F83D300268D368DB
:1015B00043F00103D3600368114A934210D0B3F1A2
:1015C000804F0DD0A2F59432934209D002F580628B
:1015D000934205D01A6842F001021A600020704759
:1015E0009A6802F00702062A07D01A6842F0010240
:1015F0001A6000207047012070470020704700BF2C
:10160000002C0140704770477047704770B5044622
:101610000368DE681D6915F0020F10D016F0020F86
:101620000DD06FF002021A610123037703689B69F2
:1016300013F0030F5ED0FFF7E6FF0023237715F0CA
:10164000040F12D016F0040F0FD023686FF00402BD
:101650001A610223237723689B6913F4407F4FD0DC
:101660002046FFF7D0FF0023237715F0080F12D094
:1016700016F0080F0FD023686FF008021A610423D8
:1016800023772368DB6913F0030F40D02046FFF770
:10169000BAFF0023237715F0100F12D016F0100FA9
:1016A0000FD023686FF010021A6108232377236894
:1016B000DB6913F4407F31D02046FFF7A4FF0023FD
:1016C000237715F0010F02D016F0010F2DD115F080
:1016D000800F02D016F0800F2FD115F0400F02D0EE
:1016E00016F0400F31D115F0200F02D016F0200F68
:1016F00033D170BDFFF786FF2046FFF785FF9CE7DB
:101700002046FFF77FFF2046FFF77EFFABE720462E
:10171000FFF778FF2046FFF777FFBAE72046FFF78D
:1017200071FF2046FFF770FFC9E723686FF00102E1
:101730001A612046FEF7E6FDC9E723686FF08002D4
:101740001A61204600F081F8C7E723686FF0400275
:101750001A612046FFF759FFC5E723686FF02002A2
:101760001A61204600F070F8C3E7000003681F4AC2
:1017700090420AD0B0F1804F07D0A2F59432904247
:1017800003D002F58062904203D123F070034A68CF
:101790001343164A90420AD0B0F1804F07D0A2F509
:1017A0009432904203D002F58062904203D123F438
:1017B0004073CA68134323F080034A6913430360EC
:1017C0008B68C3620B688362084B98420AD001237E
:1017D0004361036913F0010F03D0036923F0010390
:1017E000036170470B690363F1E700BF002C014000
:1017F00040B310B5044690F83D30F3B1022384F8AD
:101800003D30214651F8040BFFF7B0FF012384F867
:10181000463084F83E3084F83F3084F8403084F815
:10182000413084F8423084F8433084F8443084F8FE
:10183000453084F83D30002010BD80F83C30FFF783
:10184000ACFEDBE70120704770477047026802F189
:101850000C0353E8003F23F490730C3242E800314C
:101860000029F3D1026802F1140353E8003F23F08A
:101870000103143242E800310029F3D1036B012B3C
:1018800005D0202380F842300023036370470268AC
:1018900002F10C0353E8003F23F010030C3242E83E
:1018A00000310029F3D1ECE790F84130DBB2212B75
:1018B00001D0022070478368B3F5805F17D0036AB8
:1018C0005A1C02621A7803685A60C38C9BB2013BAF
:1018D0009BB2C3844BB90268D36823F08003D36002
:1018E0000268D36843F04003D36000207047036967
:1018F000002BE4D1036A1B880268C3F3080353601A
:10190000036A02330362E0E710B504460268136914
:1019100023F44053C1680B43136183680269134386
:1019200042691A430168CB6823F4B05323F00C03D7
:101930001343CB600268536923F4407381690B43FE
:1019400053610268134B9A4220D0FFF78DFD024687
:1019500002EB820202EB820263689B00B2FBF3F2AD
:101960000D48A0FB02314909642303FB11231B012D
:101970003233A0FB03035B0903F0F00202EB011218
:1019800003F00F03216813448B6010BDFFF77CFD4B
:101990000246DDE7003801401F85EB5160B310B50A
:1019A000044690F8413013B3242384F84130226870
:1019B000D36823F40053D3602046FFF7A5FF2268C5
:1019C000136923F4904313612268536923F02A03B7
:1019D00053612268D36843F40053D36000206064ED
:1019E000202384F8413084F84230606310BD80F8D1
:1019F0004030FEF753FED7E701207047704708B527
:101A00000168CA6822F04002CA60202280F84120A2
:101A1000FFF7F4FF002008BD7047704708B5406A23
:101A20000023C385C384FFF7F8FF08BD704790F813
:101A30004230DBB2222B69D18368B3F5805F4FD08F
:101A4000826AB3F5805F04D0002B56D10369002B66
:101A500053D103685B681370836A01338362C38D5B
:101A60009BB2013B9BB2C385002B51D100B583B023
:101A70000268D36823F02003D3600268D36823F49C
:101A80008073D3600268536923F0010353612023FC
:101A900080F8423000234363036B012B33D10023D2
:101AA0000363026802F10C0353E8003F23F01003C4
:101AB0000C3242E800310029F3D103681A6812F0B1
:101AC000100F06D0002201921A6801925B68019300
:101AD000019B818DFFF7AAFF002003B05DF804FB96
:101AE0000269002AACD1826A03685B68C3F3080309
:101AF0001380836A02338362B1E703685B6803F093
:101B00007F031370A8E7FFF787FFE5E70220704720
:101B10000020704710B582B0044602681368D06890
:101B2000516913F00F0F09D113F0200F0CD010F0F2
:101B3000200F09D02046FFF77AFF16E011F00101CF
:101B400015D110F4907F12D1216B012979D013F0B7
:101B5000800F03D010F0800F40F0138113F0400F7E
:101B600003D010F0400F40F0108102B010BD13F010
:101B7000010F06D010F4807F03D0626C42F00102A6
:101B8000626413F0040F04D019B1626C42F00202D7
:101B9000626413F0020F04D019B1626C42F00402C7
:101BA000626413F0080F07D010F0200F00D119B1B4
:101BB000626C42F008026264626C002AD5D013F0B5
:101BC000200F02D010F0200F29D123685B6903F0A9
:101BD0004003626C12F0080F00D163B32046FFF798
:101BE00035FE23685B6913F0400F20D0226802F1B4
:101BF000140353E8003F23F04003143242E800315D
:101C00000029F3D1E36B73B1624A5A63E06BFEF7CC
:101C100015FF0028A9D0E06B436B9847A5E7204645
:101C2000FFF705FFD1E72046FFF7F7FE9DE72046C7
:101C3000FFF7F3FE99E72046FFF7EFFE002363640A
:101C400093E713F0100F82D010F0100F3FF47FAF26
:101C5000002301931368019353680193019B536917
:101C600013F0400F51D0E26B13685B689BB2002BFE
:101C70003FF47BAFA18D99427FF677AFE3859369FF
:101C8000202B37D0226802F10C0353E8003F23F4E5
:101C900080730C3242E800310029F3D1226802F14E
:101CA000140353E8003F23F00103143242E80031EB
:101CB0000029F3D1226802F1140353E8003F23F016
:101CC0004003143242E800310029F3D1202384F884
:101CD000423000232363226802F10C0353E8003FE3
:101CE00023F010030C3242E800310029F3D1E06BFD
:101CF000FEF780FE02236363A18DE38D9BB2C91AB8
:101D000089B22046FFF792FE2FE7A18DE38D9BB2AB
:101D1000C91A89B2E38D9BB2002B3FF426AF00298C
:101D20003FF423AF226802F10C0353E8003F23F491
:101D300090730C3242E800300028F3D1226802F19F
:101D4000140353E8003F23F00103143242E800304B
:101D50000028F3D1202384F8423000232363226833
:101D600002F10C0353E8003F23F010030C3242E869
:101D700000300028F3D1022363632046FFF756FEAC
:101D8000F3E62046FFF790FDEFE62046FFF737FE2B
:101D9000EBE600BF1D1A000808B54FF0E0231B69F1
:101DA00001F0BCFB012800D108BD00F0ABF9FBE756
:101DB000EFF305832BB9064B186828B901221A6086
:101DC00070476FF0050070474FF0FF30704700BF5D
:101DD000D8100020EFF3058373B90A4B1B68012B61
:101DE0000DD110B50024084BDC77064B02221A6097
:101DF00001F0E2F8204610BD6FF0050070474FF08B
:101E0000FF307047D810002000ED00E0F0B587B03B
:101E100000240594EFF305840CBB00B3002A35D0F1
:101E2000156893692BB11E46013B372B02D9002060
:101E300016E01826536813F0010F40D154698CB195
:101E40004FEA940C936833B1D768B7F5D07F02D3CB
:101E5000176907B184B943B14FF0FF330BB305984D
:101E600007B0F0BD4FF0800CECE7D368A3B913695D
:101E7000ABB14FF0FF33F1E70293019700960B46A9
:101E80006246294601F028F80590E8E71546002348
:101E900018264FF0800CE1E74FF0FF33DEE7002318
:101EA000DCE705AB019300960B461FFA8CF229463E
:101EB00001F04FF80128D2D000230593CFE700208E
:101EC000CEE708B5EFF3058333B908B9002008BDA4
:101ED00001F0DEF90020FAE76FF00500F7E70000F7
:101EE000034B0360034B0B6080231360704700BFFC
:101EF000380F0020380D0020034B0360034B0B60AC
:101F00004FF4807313607047980B002094070020F3
:101F100000F1080343604FF0FF328260C360036149
:101F200000230360704700230361704743684B60E0
:101F30009A688A60516099600861036801330360A0
:101F4000704730B40D68B5F1FF3F11D000F10803C0
:101F50001C465B681A68AA42FAD963684B609960AC
:101F60008C606160086103680133036030BC7047B6
:101F70000469F2E70369416882688A6041685160D8
:101F80005A68824206D0002202611A68013A1A6039
:101F90001868704782685A60F5E7000082B0002335
:101FA00001930D4B1B68B3F1FF3F08D04FF0500376
:101FB00083F31188BFF36F8FBFF34F8FFEE74FF0AE
:101FC000500383F31188BFF36F8FBFF34F8F019BD3
:101FD000002BFCD002B070470C00002006480068BF
:101FE000006880F3088862B661B6BFF34F8FBFF315
:101FF0006F8F00DF00BF000008ED00E04FF080733E
:1020000040F8043C21F0010140F8081C034B40F863
:102010000C3C40F8202C4038704700BF9D1F000842
:10202000074B19680868B0E8F00F80F30988BFF320
:102030006F8F4FF0000080F311884EF00D0E704747
:10204000401A00204FF0500383F31188BFF36F8FC5
:10205000BFF34F8F0B4A136801331360012B00D07D
:1020600070474FF0E023D3F8043D13F0FF0FF7D093
:102070004FF0500383F31188BFF36F8FBFF34F8F7F
:10208000FEE700BF0C000020094B1B6843B94FF06E
:10209000500383F31188BFF36F8FBFF34F8FFEE7B9
:1020A000013B034A13600BB983F31188704700BFEB
:1020B0000C000020000000000000000000000000F4
:1020C000EFF30980BFF36F8F0D4B1A6820E9F00F13
:1020D00010602DE908404FF0500080F3118801F0A6
:1020E000FDF84FF0000080F31188BDE80840196842
:1020F0000868B0E8F00F80F30988BFF36F8F70476E
:10210000401A002008B54FF0500383F31188BFF345
:102110006F8FBFF34F8F00F0B3FF28B14FF0E02374
:102120004FF08052C3F8042D002383F3118808BDBB
:102130004FF0E022002313619361054B1B680549B2
:10214000A1FB03139B09013B5361072313617047F4
:1021500000000020D34D621010B582B02A4B1A78CF
:10216000D2B20192FF221A701B78DBB28DF80330D5
:102170009DF8033003F05003244A1370244B0722C8
:102180001A6009E0224A1368013B13609DF803308E
:102190005B00DBB28DF803309DF8033013F0800F45
:1021A000F0D11B4B1B68032B08D04FF0500383F377
:1021B0001188BFF36F8FBFF34F8FFEE71B02144AE6
:1021C000136003F4E0631360019BDBB20E4A1370EB
:1021D0004FF0E023D3F8202D42F47002C3F8202DF5
:1021E000D3F8202D42F07042C3F8202DFFF7A0FF56
:1021F0000024084B1C60FFF7F1FE01F06FF8FFF7B9
:10220000CDFE204602B010BD00E400E0E01000204A
:10221000DC1000200C000020EFF305830F2B0FD9FA
:10222000114A9B5CDBB2114A12789A4208D94FF0EE
:10223000500383F31188BFF36F8FBFF34F8FFEE717
:102240004FF0E023D3F80C3D03F4E063084A126832
:10225000934208D94FF0500383F31188BFF36F8F77
:10226000BFF34F8FFEE77047F0E300E0E01000207F
:10227000DC100020124A12F0070F1ED0D11D21F0F1
:102280000701C1F5806313440A460E48026000212D
:1022900041601344083B23F007030B480360596077
:1022A0001960991A51601360084B1960084B196046
:1022B000084B4FF000421A6070474FF48063E4E728
:1022C00004110020FC100020F8100020F010002065
:1022D000F4100020E4100020154B1A461B688342BE
:1022E000FBD3516802EB010C844509D0416800EB37
:1022F000010C634509D00360904218D0106070470C
:102300004068014451601046F0E710B4094C24685D
:10231000A3420AD05B681944416013681B680360DC
:10232000904200D0106010BC70470460F8E770471E
:10233000FC100020F810002038B5044600F092FE92
:10234000384B1B68B3B1384B1B681C4250D1002C72
:1023500050D004F1080214F0070F02D022F0070257
:102360000832002A55D0314B1B68934253D3304971
:102370000C6804E0FFF77EFFE5E721461C46636832
:10238000934202D22368002BF7D1264B1B68A3424D
:1023900043D00D68083523680B6063689B1A102BC7
:1023A00010D9A01810F0070F08D04FF0500383F396
:1023B0001188BFF36F8FBFF34F8FFEE743606260FA
:1023C000FFF78AFF626819490B689B1A0B6019496D
:1023D00009688B4201D217490B60134B1B681343EA
:1023E000636000232360144A13680133136002E022
:1023F000002500E0002500F0CFFE15F0070F0ED0FD
:102400004FF0500383F31188BFF36F8FBFF34F8FEB
:10241000FEE70025EFE70025EDE70025EBE728467E
:1024200038BD00BFF8100020E4100020F410002098
:10243000FC100020F0100020EC100020002834D008
:1024400038B50446A0F1080550F8043C174A126854
:10245000134208D14FF0500383F31188BFF36F8FFD
:10246000BFF34F8FFEE750F8081C41B14FF0500307
:1024700083F31188BFF36F8FBFF34F8FFEE723EA1B
:10248000020340F8043C00F0EDFD54F8041C084A37
:1024900013680B4413602846FFF71EFF054A1368B4
:1024A0000133136000F078FE38BD7047E41000205F
:1024B000F4100020E810002010B50446FFF7C2FD1C
:1024C000A26BE36B9A4204D00024FFF7DDFD2046A7
:1024D00010BD0124F9E710B50446FFF7B3FDA36B67
:1024E00023B90124FFF7D0FD204610BD0024F9E7F1
:1024F00070B504461546866B026C5AB903681BB169
:1025000000200136A66370BD806801F017F8002333
:10251000A360F6E76DB9406801F0EAFA6368226CDF
:1025200013446360A268934219D32368636028460A
:10253000E7E7C06801F0DCFAE368226C51429B1ABD
:10254000E3602268934202D2A3680B44E360022D49
:1025500001D00020D5E726B1013E0020D1E7284672
:10256000CFE70020CDE708B50346026C62B108460C
:10257000D9681144D960D3F808C0614501D31968FE
:10258000D960D96801F0B4FA08BD38B50546FFF73F
:1025900059FD95F8454064B201E0013C64B2002C5D
:1025A0000ADD6B6A43B105F1240000F01DFF00282D
:1025B000F3D000F0ADFFF0E7FF2385F84530FFF7DB
:1025C00063FDFFF73FFD95F8444064B201E0013C34
:1025D00064B2002C0ADD2B6943B105F1100000F054
:1025E00003FF0028F3D000F093FFF0E7FF2385F806
:1025F0004430FFF749FD38BD38B5E0B10D4604461B
:10260000FFF720FD2368E26B216C01FB0230A06024
:102610000020A0636360013A02FB0133E360FF2303
:1026200084F8443084F84530FDB9236963B9FFF775
:102630002BFD012038BD4FF0500383F31188BFF309
:102640006F8FBFF34F8FFEE704F1100000F0CCFE58
:102650000028ECD04FF0E0234FF08052C3F8042D57
:10266000BFF34F8FBFF36F8FE1E704F11000FFF767
:102670004FFC04F12400FFF74BFCD8E738B51D46AA
:10268000049C0B4649B92460E06323640121204681
:10269000FFF7B2FF84F84C5038BD2260F4E740B930
:1026A0004FF0500383F31188BFF36F8FBFF34F8F49
:1026B000FEE710B584B01C46844653B192B189B987
:1026C0004FF0500383F31188BFF36F8FBFF34F8F29
:1026D000FEE74FF0500383F31188BFF36F8FBFF312
:1026E0004F8FFEE76AB150230393039B502B13D007
:1026F0004FF0500383F31188BFF36F8FBFF34F8FF9
:10270000FEE70029EFD04FF0500383F31188BFF3A9
:102710006F8FBFF34F8FFEE7039B012384F8463092
:1027200000949DF818306046FFF7A8FF204604B0DB
:1027300010BDF0B585B0019288B10F461D46044624
:10274000B1B1022D20D1E36B012B1DD04FF050030E
:1027500083F31188BFF36F8FBFF34F8FFEE74FF006
:10276000500383F31188BFF36F8FBFF34F8FFEE7E2
:10277000036C002BE5D04FF0500383F31188BFF3B7
:102780006F8FBFF34F8FFEE700F0C8FE064658B9C3
:10279000019B002B48D04FF0500383F31188BFF307
:1027A0006F8FBFF34F8FFEE700263DE02A46394684
:1027B0002046FFF79DFE636A7BB948B14FF0E023E6
:1027C0004FF08052C3F8042DBFF34F8FBFF36F8FCC
:1027D000FFF75AFC012005B0F0BD04F1240000F021
:1027E00003FE0028F4D04FF0E0234FF08052C3F8EE
:1027F000042DBFF34F8FBFF36F8FE9E7FFF744FC62
:102800000020E8E702A800F035FE012619E00023C9
:1028100084F8443021E0002384F8453023E020464A
:10282000FFF7B3FE00F0B8FCFFF70CFCA26BE36B04
:102830009A42BBD3022DB9D0019B002BDED0002ED3
:10284000E0D0FFF721FC00F00DFCFFF7FBFB94F854
:10285000442052B2B2F1FF3FD9D094F8452052B291
:10286000B2F1FF3FD7D0FFF70FFC01A902A800F09B
:102870000DFED8B92046FFF71FFE0028CFD00199E2
:1028800004F1100000F07CFD2046FFF77EFE00F012
:1028900083FC0028C8D14FF0E0234FF08052C3F8EA
:1028A000042DBFF34F8FBFF36F8FBDE72046FFF7B7
:1028B0006CFE00F071FC00208DE72DE9F84390B12B
:1028C0000F4616461C460546B1B1022C20D1EB6BD3
:1028D000012B1DD04FF0500383F31188BFF36F8F8E
:1028E000BFF34F8FFEE74FF0500383F31188BFF320
:1028F0006F8FBFF34F8FFEE7036C002BE5D04FF0D7
:10290000500383F31188BFF36F8FBFF34F8FFEE740
:10291000FFF782FCEFF311884FF0500383F3118827
:10292000BFF36F8FBFF34F8FAA6BEB6B9A4206D347
:10293000022C04D0002088F31188BDE8F88395F8B4
:1029400045904FFA89F9AB6B224639462846FFF786
:10295000CFFDB9F1FF3F06D009F101035BB285F865
:1029600045300120E7E76B6A0BB90120E3E705F189
:10297000240000F039FD18B126B101203060DAE7FB
:102980000120D8E70120D6E7F0B585B0019290B1DB
:102990000F460446C1B100F0C1FD064600BB019BD5
:1029A000002B5ED04FF0500383F31188BFF36F8F7D
:1029B000BFF34F8FFEE74FF0500383F31188BFF34F
:1029C0006F8FBFF34F8FFEE7036C002BE3D04FF008
:1029D000500383F31188BFF36F8FBFF34F8FFEE770
:1029E00000263EE039462046FFF7BDFD013DA563C8
:1029F000236923B9FFF748FB012005B0F0BD04F1BE
:102A0000100000F0F1FC0028F4D04FF0E0234FF06C
:102A10008052C3F8042DBFF34F8FBFF36F8FE9E7E8
:102A2000FFF732FB0020E8E702A800F023FD0126B3
:102A300021E0002384F8443029E0002384F8453065
:102A40002BE02046FFF7A1FD00F0A6FB09E02046A1
:102A5000FFF79BFD00F0A0FB2046FFF73CFD0028A0
:102A60003FD1FFF7EFFAA56B002DBBD1019B002BE7
:102A7000D6D0002ED8D0FFF707FB00F0F3FAFFF70F
:102A8000E1FA94F844305BB2B3F1FF3FD1D094F84F
:102A900045305BB2B3F1FF3FCFD0FFF7F5FA01A9A4
:102AA00002A800F0F3FC0028D1D12046FFF713FD67
:102AB0000028C6D0019904F1240000F061FC2046F2
:102AC000FFF763FD00F068FB0028CAD14FF0E02358
:102AD0004FF08052C3F8042DBFF34F8FBFF36F8FB9
:102AE000BFE7002089E700000023072B0CD8074A26
:102AF00052F833200AB10133F7E7044A42F83310A1
:102B000002EBC30250607047704700BF04150020FD
:102B100070B504460D461646FFF794FA94F8443013
:102B20005BB2B3F1FF3F0DD094F845305BB2B3F127
:102B3000FF3F0BD0FFF7A8FAA36B5BB12046FFF76E
:102B400024FD70BD002384F84430EDE7002384F8B1
:102B50004530EFE73246294604F1240000F028FC16
:102B6000ECE70000084B1B681B6823B9074B4FF0CC
:102B7000FF321A607047044B1B68DB68DB685A68D9
:102B8000024B1A60704700BFB41500204C1500209E
:102B90002DE9F04780460D4617469946089EDDF818
:102BA00024A00A9C9200A521206B00F038FF236B23
:102BB00007F18042013A03EB820727F00707002D57
:102BC00061D04FF0000CBCF10F0F09D815F80C3094
:102BD00004EB0C0282F8343013B10CF1010CF2E773
:102BE000002384F84330372E00D93726E662E664A6
:102BF00000252565201DFFF796F904F11800FFF761
:102C000092F92461C6F13806A6616462C4F898514D
:102C100084F89C514FF4A072294604F1580000F04A
:102C2000FEFE1B4BE36503F168022266D033636648
:102C300001220023C4E93C2343F20E33A4F8F83008
:102C40004AF6CD33A4F8FA3041F23423A4F8FC302C
:102C50004EF26D63A4F8FE304DF6EC63A4F800313B
:102C60000523A4F802310B23A4F804314A46414657
:102C70003846FFF7C3F92060BAF1000F01D0CAF857
:102C80000040BDE8F087002384F83430ABE700BF94
:102C9000701B002038B5002407E004EB8402930089
:102CA0000E481844FFF734F90134372CF5D90C4D90
:102CB0002846FFF72DF90B4C2046FFF729F90A4863
:102CC000FFF726F90948FFF723F90948FFF720F92C
:102CD000084B1D60084B1C6038BD00BFE01500208C
:102CE000CC150020B81500209C1500208815002068
:102CF00070150020B4150020B015002010B5044652
:102D0000FFF7A0F9224A136801331360214B1B68B7
:102D10005BB1214B1B686BB91E4B1B68DA6AE36A17
:102D20009A4207D81B4B1C6004E01A4B1C601368C6
:102D3000012B29D0194A1368013313606364E06AD8
:102D4000174B1B68984201D9154B186000EB8000A7
:102D5000211D144B03EB8000FFF7E8F8FFF794F90F
:102D60000D4B1B687BB10B4B1B68DA6AE36A9A4216
:102D700009D24FF0E0234FF08052C3F8042DBFF387
:102D80004F8FBFF36F8F10BDFFF784FFD2E700BFF7
:102D90006C150020401A00206015002050150020FE
:102DA00064150020E015002010B50446583000F0EE
:102DB0003FFE94F89D3163B1012B11D0022B0ED050
:102DC0004FF0500383F31188BFF36F8FBFF34F8F22
:102DD000FEE7206BFFF732FB2046FFF72FFB10BD0D
:102DE0002046FFF72BFBFAE70F4B1B68D3B110B55A
:102DF000FFF728F90D4BDB68DC68201DFFF7BAF8F8
:102E00000B4A1368013B1360074A1368013B1360C8
:102E1000FFF73AF92046FFF7C7FF034B1B68002B6B
:102E2000E6D110BD704700BF841500208815002032
:102E30006C15002008B5FFF7D7FF074B1B68012B67
:102E4000F9D94FF0E0234FF08052C3F8042DBFF3BF
:102E50004F8FBFF36F8FEEE7E015002070B504468B
:102E60000D46174B1E68174B18680430FFF782F8A1
:102E7000B4F1FF3F0DD03444124B1B685C60A64296
:102E800010D9114B18680F4B19680431FFF759F826
:102E900070BD002DEFD00B4B196804310B48FFF7C4
:102EA00045F8F5E70A4B1868064B19680431FFF737
:102EB00048F8084B1B68A342EAD9064B1C60E7E7B9
:102EC00068150020401A0020B01500207015002061
:102ED000B41500204C15002030B587B00B9C8CB188
:102EE0000C9DC5B14FF4D0750495049DB5F5D07F08
:102EF0001AD04FF0500383F31188BFF36F8FBFF3E5
:102F00004F8FFEE74FF0500383F31188BFF36F8FAD
:102F1000BFF34F8FFEE74FF0500383F31188BFF3E9
:102F20006F8FBFF34F8FFEE7049D0C9D2C6302242F
:102F300085F89D4100240394029505AC01940A9CF8
:102F40000094FFF725FE0C98FFF7D8FE059807B010
:102F500030BD2DE9F04385B00746884614461E462D
:102F60009000FFF7E9F910B381464FF4D070FFF7F6
:102F7000E3F90546A8B1C0F83090002380F89D31F0
:102F8000039302900D9B01930C9B009333462246C2
:102F900041463846FFF7FCFD2846FFF7AFFE01200B
:102FA00007E04846FFF74AFA4FF0FF3001E04FF0E4
:102FB000FF3005B0BDE8F08310B588B0002405945B
:102FC000069407AA06A905A8FEF78AFF059B0293A7
:102FD000069B019300942346079A1A491A48FFF763
:102FE0007BFF1A4B1860E8B100F05CFB01281AD196
:102FF0004FF0500383F31188BFF36F8FBFF34F8FF0
:10300000134B1B685833134A1360134B4FF0FF32B6
:103010001A60124B01221A60114B00221A60FFF74E
:103020009BF803E00020B0F1FF3F01D008B010BDD5
:103030004FF0500383F31188BFF36F8FBFF34F8FAF
:10304000FEE700BF743E0008352E0008481500203A
:10305000401A0020100000204C15002060150020B0
:1030600068150020024A136801331360704700BFDF
:1030700044150020014B1868704700BF68150020F8
:10308000F8B53A4B1B68002B69D1394B1D680135E7
:103090001D60C5B9374B1B681B6843B14FF0500327
:1030A00083F31188BFF36F8FBFF34F8FFEE7314A71
:1030B0001168314B186810601960304A1368013389
:1030C0001360FFF74FFD2E4B1B68AB423DD9002725
:1030D0002C4B1B68DB6A03EB83039A002A4B9B583B
:1030E000012B00D90127294B1B68002B3CD001275D
:1030F0003AE001271F4B1B681B6843B31D4B1B683D
:10310000DB68DC6863689D4226D3261D3046FEF7E7
:1031100031FFA36A1BB104F11800FEF72BFFE36A2D
:103120001B4A1268934201D9194A136003EB8303C7
:103130009A00314614481044FEF7F8FEE26A114B3B
:103140001B68DB6A9A42D4D2D4E70027D2E70C4B43
:103150004FF0FF321A60BBE7094A1360B8E70D4A27
:1031600013680133136000273846F8BD441500206A
:1031700068150020B4150020B0150020541500205B
:103180004C150020401A0020E015002058150020A2
:10319000641500205C15002038B5354B1B6843B919
:1031A0004FF0500383F31188BFF36F8FBFF34F8F3E
:1031B000FEE7FEF747FF2E4B1A68013A1A601B68BC
:1031C000002B4FD12B4B1B680BB900244BE0002484
:1031D000294B1B681BB3284BDB68DC6804F1180023
:1031E000FEF7C8FE251D2846FEF7C4FEE06A234B05
:1031F0001B68984201D9214B186000EB80002946DA
:103200001F4B03EB8000FEF791FEE26A1D4B1B682B
:10321000DB6A9A42DCD31C4B01221A60D8E70CB15E
:10322000FFF7A0FC194B1C6884B9174B1C68D4B17C
:103230004FF0E0234FF08052C3F8042DBFF34F8FBF
:10324000BFF36F8F01240EE0013C07D0FFF718FF9A
:103250000028F9D00C4B01221A60F5E70B4B002235
:103260001A60E2E70024FEF70FFF204638BD00BFDA
:10327000441500206C1500209C15002064150020CA
:10328000E0150020401A0020581500205C15002091
:1032900010B5A8B10446104B1B6843B14FF0500362
:1032A00083F31188BFF36F8FBFF34F8FFEE7FFF7F4
:1032B000D9FE00212046FFF7D1FDFFF76DFF48B989
:1032C0004FF0E0234FF08052C3F8042DBFF34F8F2F
:1032D000BFF36F8F10BD00BF44150020224B1B6849
:1032E0001BB1224B01221A607047204B00221A604A
:1032F0001F4B1B6803EB83018A001E498A585AB989
:103300000BB1013BF6E74FF0500383F31188BFF395
:103310006F8FBFF34F8FFEE7084603EB83018A00F0
:10332000024451684968516003EB830C4FEA8C02F8
:103330000832024491420FD003EB830291000D4A00
:103340000A445268D1680C4A116009490B6013683D
:1033500058330A4A13607047486862469100054A2C
:103360000A445060E8E700BF4415002058150020CB
:1033700064150020E0150020401A002010000020F5
:1033800058B110B50C46094A11681831FEF7D9FD3D
:1033900001212046FFF762FD10BD4FF0500383F37B
:1033A0001188BFF36F8FBFF34F8FFEE7401A0020E5
:1033B00038B570B10D4614460A4A11681831FEF747
:1033C000B5FD0CB14FF0FF3521462846FFF746FD0D
:1033D00038BD4FF0500383F31188BFF36F8FBFF3F5
:1033E0004F8FFEE7401A002038B5C368DC6824B36D
:1033F00004F118052846FEF7BDFD184B1B682BBBD2
:10340000251D2846FEF7B6FDE06A154B1B6898425D
:1034100001D9134B186000EB80002946114B03EBD8
:103420008000FEF783FDE26A0F4B1B68DB6A9A425D
:1034300011D901200D4B186038BD4FF0500383F3B4
:103440001188BFF36F8FBFF34F8FFEE729460848FF
:10345000FEF76CFDE7E70020EEE700BF4415002013
:1034600064150020E0150020401A002058150020A7
:103470009C150020034B1B680360034B1B684360D3
:10348000704700BF5415002068150020D8B170B5F2
:103490000C46054601B3FEF7D5FD1B4B19686B685A
:1034A000C81A2268B2F1FF3F27D0184E3668D5F807
:1034B00000C0B44501D08B4224D9824215D80023E4
:1034C000236001241AE04FF0500383F31188BFF307
:1034D0006F8FBFF34F8FFEE74FF0500383F31188D8
:1034E000BFF36F8FBFF34F8FFEE75B1A1344236068
:1034F0002846FFF7BFFF002400E00024FEF7C4FDCC
:10350000204670BD0124F9E76815002054150020FD
:10351000014B01221A60704758150020054B1B68AB
:1035200033B1054B1B680BB1002070470220704778
:1035300001207047601500204415002000283BD072
:1035400038B504461E4B1B68834208D04FF0500329
:1035500083F31188BFF36F8FBFF34F8FFEE7036DC7
:1035600043B94FF0500383F31188BFF36F8FBFF35C
:103570004F8FFEE7013B0365C16AC26C91421DD0CB
:103580000BB1002038BD051D2846FEF7F3FCE06CAA
:10359000E062C0F13803A3610A4B1B68984201D96D
:1035A000084B186000EB80002946074B03EB8000B6
:1035B000FEF7BCFC0120E5E7002070470020E1E7B2
:1035C000401A002064150020E0150020064B1A6800
:1035D00013682BB90123036023B9D36818687047B7
:1035E0000023F8E700207047441B002008B5416025
:1035F000006191420CD8D21A83699A4201D301200A
:1036000008BD011D094B1868FEF79BFC0020F7E779
:103610009A4201D2994206D2011D054B1868FEF765
:1036200090FC0020ECE70120EAE700BF401B0020EF
:10363000441B002030B583B0FEF704FD114B1B681E
:103640001BB1FEF721FD03B030BD0F4D2846FEF73C
:103650005FFC0E4C2046FEF75BFC0D4B1D600D4BD6
:103660001C60002300930C4B0C4A10210A20FFF72A
:1036700016F8044B18600028E3D00949FFF734FA24
:10368000DFE700BF3C1B00205C1B0020481B002024
:10369000441B0020401B0020441A0020941A0020E4
:1036A0007C3E000810B588B0FFF7C4FF124B1B68C2
:1036B000CBB100240594069407AA06A905A8FEF735
:1036C0001BFC059B0293069B019302230093234658
:1036D000079A0A490A48FFF7FFFB0A4B186010B126
:1036E000012008B010BD4FF0500383F31188BFF3E1
:1036F0006F8FBFF34F8FFEE73C1B0020843E000816
:10370000093A0008381B0020B8B19C460346184807
:10371000006858B300B585B0009101920293052965
:103720001CDCFFF7FBFE022810D000231A46694676
:103730000F480068FEF7FDFF15E04FF0500383F3DC
:103740001188BFF36F8FBFF34F8FFEE70023069AF8
:10375000694607480068FEF7ECFF04E00023624674
:103760006946FFF7AAF805B05DF804FB0020704732
:103770003C1B002070B582B01B4B1B681A6862B3FB
:10378000DB681E68DC68251D2846FEF7F3FB236A0C
:103790002046984794F8283013F0040FECD0A36922
:1037A00033449E4207D26360246129460E4B186859
:1037B000FEF7C7FBE0E7002100910B4632462046AA
:1037C000FFF7A2FF0028D7D14FF0500383F31188F1
:1037D000BFF36F8FBFF34F8FFEE7044A10680249B3
:1037E0000860136002B070BD441B0020401B002025
:1037F00038B50546FFF73EFC0446074B1B6883427D
:1038000005D800232B60044B1C60204638BDFFF711
:10381000B1FF01232B60F6E7341B002070B582B0A6
:1038200006460D4617490968C968CC68201DFEF791
:10383000A1FB94F828C01CF0040F08D12CF0010C57
:1038400084F828C0236A2046984702B070BDA16959
:1038500033462A4631442046FFF7C8FE0028F1D0FF
:10386000002100910B4632462046FFF74DFF00280D
:10387000E8D14FF0500383F31188BFF36F8FBFF38C
:103880004F8FFEE7441B002070B582B006460C4601
:10389000FFF7E8FB01A8FFF7ABFF019B33BB054631
:1038A000E4B9B04213D22246711B124B1868FFF7DD
:1038B0002FF9FFF771FCD8B94FF0E0234FF0805299
:1038C000C3F8042DBFF34F8FBFF36F8F10E0FFF7E6
:1038D00063FC29463046FFF7A1FF09E0064A12685B
:1038E00012680AB90124DEE71C46DCE7FFF754FC46
:1038F00002B070BD3C1B0020401B002010B588B0FA
:1039000002E0049B002B0FDA002204A93D4B18684B
:10391000FFF73AF8002873D0049B002BF1DA0799DF
:103920000698059B9847ECE7069C636913B1201D38
:10393000FEF720FB03A8FFF75BFF049B092BE3D8EE
:10394000DFE803F00505053037500505303794F8FA
:10395000283043F0010384F82830059BA169024612
:1039600019442046FFF742FE0028CDD0236A2046A6
:10397000984794F8283013F0040FC5D0A2690021AD
:1039800000910B46059802442046FFF7BDFE002833
:10399000BAD14FF0500383F31188BFF36F8FBFF399
:1039A0004F8FFEE794F8283023F0010384F8283085
:1039B000AAE794F8283043F0010384F828300599E9
:1039C000A16131B10346024601442046FFF70EFED5
:1039D0009AE74FF0500383F31188BFF36F8FBFF363
:1039E0004F8FFEE794F8283013F0020F04D023F035
:1039F000010384F8283087E72046FEF71FFD83E7A0
:103A000008B010BD3C1B002000B583B001A8FFF733
:103A1000DDFD0199FFF738FFFFF770FFF6E703467A
:103A20000244934200D1704703F8011BF9E70000FC
:103A3000184B70B51B68044683422AD0436C53B1BF
:103A40000025636C595999B90435802DF9D1204668
:103A5000616C00F0C1F8A16B11B1204600F0BCF818
:103A6000256C5DB1294620462D6800F0B5F8F8E7D1
:103A70000E68204600F0B0F83146E4E7E16C11B181
:103A8000204600F0A9F8636B1BB12046BDE87040EA
:103A9000184770BD10000020014B1868704700BF28
:103AA0001000002070B500260C4D0D4C641BA410B6
:103AB000A64209D100F0CCF900260A4D0A4C641B3D
:103AC000A410A64205D170BD55F8043B98470136B5
:103AD000EEE755F8043B98470136F2E7DC3E000874
:103AE000DC3E0008DC3E0008E43E000870477047FA
:103AF0000A44914200F1FF3300D1704710B511F82C
:103B0000014B914203F8014FF9D110BD024B13B1A3
:103B1000024800F005B8704700000000913D000821
:103B2000002301461A46184600F052B92DE9F84321
:103B300006460820894600F03FF98046234F30466C
:103B400000F00AF9BB685D6825F00305A5F11104D2
:103B5000A4EB09044444B4FBF8F4013C08FB04F46E
:103B6000A04505DD304600F0FDF80020BDE8F883F3
:103B70000021304600F0FCF8BB682B449842F1D19C
:103B80003046614200F0F4F8013010D10021304697
:103B900000F0EEF8BA68831A0F2BE3DD0C4943F00E
:103BA000010309685360401A0A490860DAE7BB68F4
:103BB000084A2D1B45F001055D60136830461B1B4C
:103BC000136000F0CFF80120D0E700BF64010020AF
:103BD0005C010020B41C0020F8B504460F46002903
:103BE00000F0B18000F0B8F857F8042C564D22F0E0
:103BF0000100A7F1080303EB000CA968DCF80460DE
:103C0000614526F0030602F001021BD106443AB9D1
:103C100057F8082C9B1A1644D3E90212CA60916027
:103C200046F001025A60AB60484B1B68B34204D8AF
:103C3000474B20461968FFF779FF2046BDE8F8405A
:103C400000F090B8CCF80460002A38D157F8081C6E
:103C500005F108075B1A08449968B94231D0DF685A
:103C6000CF60B9600CEB06014968C9070BD4DCF8DA
:103C7000081030443ABB374EB14224D10122C5E985
:103C80000433C3E9021140F0010159601850002AC1
:103C9000D3D1B0F5007F1BD20121C2084009814079
:103CA000686801320143696055F8320005EBC201D2
:103CB0000839C3E9020145F83230C360BDE700228C
:103CC000D0E70122CEE7DCF80C60CE60B160DAE725
:103CD000B0F5206F4FEA502214D282093832511CBD
:103CE00055F8311005EBC2068E4225D10120921005
:103CF00000FA02F2686802436A60C3E90216B36020
:103D0000CB609AE7142A01D85B32E8E7542A02D83C
:103D1000020B6E32E3E7B2F5AA7F02D8C20B77320C
:103D2000DDE740F254518A4296BF820C7E227C32FB
:103D3000D5E789688E4204D04A6822F003028242A5
:103D4000F7D8CE68D9E7F8BD6401002060010020F3
:103D5000DC1C00206C0100200148FFF7C7BE00BF3B
:103D6000AC1C00200148FFF7C2BE00BFAC1C002005
:103D700038B50023054D044608462B60FCF734FC9B
:103D8000431C02D12B6803B1236038BDA81C00205E
:103D900038B5074D074C641BA4101CB9BDE838406A
:103DA00000F05CB8013C55F824309847F5E700BFB7
:103DB000E43E0008E83E0008082808B506D0FFF7F2
:103DC0006BFE162303604FF0FF3008BD8020FCE738
:103DD0002DE9F047DFF86CA00646DAF800009846B7
:103DE0000F469146FFF782FE174B1C680CB9174C23
:103DF0001C606568DAF800001F2D05DDFFF777FE0F
:103E00004FF0FF30BDE8F0879EB1012204EB850141
:103E1000C1F88890D4F88831AA401343C4F8883197
:103E2000022EC1F8088102BFD4F88C311343C4F8C4
:103E30008C316B1C0235636044F82570FFF757FE28
:103E40000020DFE758010020B01C0020E01C00200B
:103E5000F8B500BFF8BC08BC9E467047F8B500BF77
:083E6000F8BC08BC9E46704747
:103E680064656661756C745461736B0049444C45B4
:103E780000000000546D725100000000546D722063
:103E880053766300683E0008000000000000000050
:103E98000000000000000000000200001800000000
:103EA8000000000000000000000000000102030400
:103EB80000000000000000000102030406070809D2
:103EC8000102000002030405060708090A0B0C0D8D
:043ED8000E0F1010A9
:083EDC000D3B00083501000850
:043EE40011010008C0
:103EE80000127A000100000010000000AAAAAAAA85
:103EF800180000200000000000000000701B0020D7
:103F0800D81B0020401C002000000000000000001A
:103F18000000000000000000000000000000000099
:103F28000000000000000000000000000000000089
:103F38000000000000000000000000000000000079
:103F48000000000000000000000000000000000069
:103F58000000000000000000000000000000000059
:103F68000000000000000000000000000000000049
:103F78000000000000000000000000000000000039
:103F88000000000000000000000000000000000029
:103F980001000000000000000E33CDAB34126DE6C6
:103FA800ECDE05000B00000000000000000000002F
:103FB80000000000000000000000000000000000F9
:103FC80000000000000000000000000000000000E9
:103FD80000000000000000000000000000000000D9
:103FE80000000000000000000000000000000000C9
:103FF80000000000000000000000000000000000B9
:1040080000000000000000000000000000000000A8
:104018000000000000000000000000000000000098
:104028000000000000000000000000000000000088
:104038000000000000000000AD1C0020FFFFFFFF93
:1040480000000200000000000000000064010020E1
:10405800640100206C0100206C0100207401002024
:10406800740100207C0100207C01002084010020D4
:10407800840100208C0100208C0100209401002084
:10408800940100209C0100209C010020A401002034
:10409800A4010020AC010020AC010020B4010020E4
:1040A800B4010020BC010020BC010020C401002094
:1040B800C4010020CC010020CC010020D401002044
:1040C800D4010020DC010020DC010020E4010020F4
:1040D800E4010020EC010020EC010020F4010020A4
:1040E800F4010020FC010020FC0100200402002053
:1040F800040200200C0200200C0200201402002000
:10410800140200201C0200201C02002024020020AF
:10411800240200202C0200202C020020340200205F
:10412800340200203C0200203C020020440200200F
:10413800440200204C0200204C02002054020020BF
:10414800540200205C0200205C020020640200206F
:10415800640200206C0200206C020020740200201F
:10416800740200207C0200207C02002084020020CF
:10417800840200208C0200208C020020940200207F
:10418800940200209C0200209C020020A40200202F
:10419800A4020020AC020020AC020020B4020020DF
:1041A800B4020020BC020020BC020020C40200208F
:1041B800C4020020CC020020CC020020D40200203F
:1041C800D4020020DC020020DC020020E4020020EF
:1041D800E4020020EC020020EC020020F40200209F
:1041E800F4020020FC020020FC020020040300204E
:1041F800040300200C0300200C03002014030020FB
:10420800140300201C0300201C03002024030020AA
:10421800240300202C0300202C030020340300205A
:10422800340300203C0300203C030020440300200A
:10423800440300204C0300204C03002054030020BA
:10424800540300205C0300205C030020640300206A
:10425800640300206C0300206C030020740300201A
:10426800740300207C0300207C03002084030020CA
:10427800840300208C0300208C030020940300207A
:10428800940300209C0300209C030020A40300202A
:10429800A4030020AC030020AC030020B4030020DA
:1042A800B4030020BC030020BC030020C40300208A
:1042B800C4030020CC030020CC030020D40300203A
:1042C800D4030020DC030020DC030020E4030020EA
:1042D800E4030020EC030020EC030020F40300209A
:1042E800F4030020FC030020FC0300200404002049
:1042F800040400200C0400200C04002014040020F6
:10430800140400201C0400201C04002024040020A5
:10431800240400202C0400202C0400203404002055
:10432800340400203C0400203C0400204404002005
:10433800440400204C0400204C04002054040020B5
:10434800540400205C0400205C0400206404002065
:10435800640400206C0400206C0400207404002015
:10436800740400207C0400207C04002084040020C5
:10437800840400208C0400208C0400209404002075
:10438800940400209C0400209C040020A404002025
:10439800A4040020AC040020AC040020B4040020D5
:1043A800B4040020BC040020BC040020C404002085
:1043B800C4040020CC040020CC040020D404002035
:1043C800D4040020DC040020DC040020E4040020E5
:1043D800E4040020EC040020EC040020F404002095
:1043E800F4040020FC040020FC0400200405002044
:1043F800040500200C0500200C05002014050020F1
:10440800140500201C0500201C05002024050020A0
:10441800240500202C0500202C0500203405002050
:10442800340500203C0500203C0500204405002000
:10443800440500204C0500204C05002054050020B0
:0C444800540500205C0500205C050020ED
:0400000508000831B6
:00000001FF
